{
  "contractName": "Darticle",
  "abi": [
    {
      "anonymous": false,
      "inputs": [
        {
          "indexed": false,
          "internalType": "uint256",
          "name": "id",
          "type": "uint256"
        },
        {
          "indexed": false,
          "internalType": "string",
          "name": "hash",
          "type": "string"
        },
        {
          "indexed": false,
          "internalType": "string",
          "name": "title",
          "type": "string"
        },
        {
          "indexed": false,
          "internalType": "string",
          "name": "description",
          "type": "string"
        }
      ],
      "name": "ArticleCreated",
      "type": "event"
    },
    {
      "inputs": [],
      "name": "articleCount",
      "outputs": [
        {
          "internalType": "uint256",
          "name": "",
          "type": "uint256"
        }
      ],
      "stateMutability": "view",
      "type": "function",
      "constant": true
    },
    {
      "inputs": [
        {
          "internalType": "uint256",
          "name": "",
          "type": "uint256"
        }
      ],
      "name": "articles",
      "outputs": [
        {
          "internalType": "uint256",
          "name": "id",
          "type": "uint256"
        },
        {
          "internalType": "string",
          "name": "hash",
          "type": "string"
        },
        {
          "internalType": "string",
          "name": "title",
          "type": "string"
        },
        {
          "internalType": "string",
          "name": "description",
          "type": "string"
        }
      ],
      "stateMutability": "view",
      "type": "function",
      "constant": true
    },
    {
      "inputs": [],
      "name": "name",
      "outputs": [
        {
          "internalType": "string",
          "name": "",
          "type": "string"
        }
      ],
      "stateMutability": "view",
      "type": "function",
      "constant": true
    },
    {
      "inputs": [
        {
          "internalType": "string",
          "name": "_imgHash",
          "type": "string"
        },
        {
          "internalType": "string",
          "name": "_title",
          "type": "string"
        },
        {
          "internalType": "string",
          "name": "_description",
          "type": "string"
        }
      ],
      "name": "uploadArticle",
      "outputs": [],
      "stateMutability": "nonpayable",
      "type": "function"
    }
  ],
  "bytecode": "0x60806040526040518060400160405280600881526020017f4461727469636c650000000000000000000000000000000000000000000000008152506000908051906020019061004f929190610067565b50600060015534801561006157600080fd5b5061016b565b82805461007390610139565b90600052602060002090601f01602090048101928261009557600085556100dc565b82601f106100ae57805160ff19168380011785556100dc565b828001600101855582156100dc579182015b828111156100db5782518255916020019190600101906100c0565b5b5090506100e991906100ed565b5090565b5b808211156101065760008160009055506001016100ee565b5090565b7f4e487b7100000000000000000000000000000000000000000000000000000000600052602260045260246000fd5b6000600282049050600182168061015157607f821691505b602082108114156101655761016461010a565b5b50919050565b61099e8061017a6000396000f3fe608060405234801561001057600080fd5b506004361061004c5760003560e01c806306fdde03146100515780632b0349f81461006f578063414e28b01461008b578063edcfafe6146100a9575b600080fd5b6100596100dc565b6040516100669190610596565b60405180910390f35b61008960048036038101906100849190610701565b61016a565b005b61009361028c565b6040516100a091906107c1565b60405180910390f35b6100c360048036038101906100be9190610808565b610292565b6040516100d39493929190610835565b60405180910390f35b600080546100e9906108be565b80601f0160208091040260200160405190810160405280929190818152602001828054610115906108be565b80156101625780601f1061013757610100808354040283529160200191610162565b820191906000526020600020905b81548152906001019060200180831161014557829003601f168201915b505050505081565b600083511161017857600080fd5b600082511161018657600080fd5b600081511161019457600080fd5b600160008154809291906101a79061091f565b9190505550604051806080016040528060015481526020018481526020018381526020018281525060026000600154815260200190815260200160002060008201518160000155602082015181600101908051906020019061020a92919061045a565b50604082015181600201908051906020019061022792919061045a565b50606082015181600301908051906020019061024492919061045a565b509050507fa14b28a31f9b3851409bc3123faae508335afe0b972996644542392803537bed60015484848460405161027f9493929190610835565b60405180910390a1505050565b60015481565b60026020528060005260406000206000915090508060000154908060010180546102bb906108be565b80601f01602080910402602001604051908101604052809291908181526020018280546102e7906108be565b80156103345780601f1061030957610100808354040283529160200191610334565b820191906000526020600020905b81548152906001019060200180831161031757829003601f168201915b505050505090806002018054610349906108be565b80601f0160208091040260200160405190810160405280929190818152602001828054610375906108be565b80156103c25780601f10610397576101008083540402835291602001916103c2565b820191906000526020600020905b8154815290600101906020018083116103a557829003601f168201915b5050505050908060030180546103d7906108be565b80601f0160208091040260200160405190810160405280929190818152602001828054610403906108be565b80156104505780601f1061042557610100808354040283529160200191610450565b820191906000526020600020905b81548152906001019060200180831161043357829003601f168201915b5050505050905084565b828054610466906108be565b90600052602060002090601f01602090048101928261048857600085556104cf565b82601f106104a157805160ff19168380011785556104cf565b828001600101855582156104cf579182015b828111156104ce5782518255916020019190600101906104b3565b5b5090506104dc91906104e0565b5090565b5b808211156104f95760008160009055506001016104e1565b5090565b600081519050919050565b600082825260208201905092915050565b60005b8381101561053757808201518184015260208101905061051c565b83811115610546576000848401525b50505050565b6000601f19601f8301169050919050565b6000610568826104fd565b6105728185610508565b9350610582818560208601610519565b61058b8161054c565b840191505092915050565b600060208201905081810360008301526105b0818461055d565b905092915050565b6000604051905090565b600080fd5b600080fd5b600080fd5b600080fd5b7f4e487b7100000000000000000000000000000000000000000000000000000000600052604160045260246000fd5b61060e8261054c565b810181811067ffffffffffffffff8211171561062d5761062c6105d6565b5b80604052505050565b60006106406105b8565b905061064c8282610605565b919050565b600067ffffffffffffffff82111561066c5761066b6105d6565b5b6106758261054c565b9050602081019050919050565b82818337600083830152505050565b60006106a461069f84610651565b610636565b9050828152602081018484840111156106c0576106bf6105d1565b5b6106cb848285610682565b509392505050565b600082601f8301126106e8576106e76105cc565b5b81356106f8848260208601610691565b91505092915050565b60008060006060848603121561071a576107196105c2565b5b600084013567ffffffffffffffff811115610738576107376105c7565b5b610744868287016106d3565b935050602084013567ffffffffffffffff811115610765576107646105c7565b5b610771868287016106d3565b925050604084013567ffffffffffffffff811115610792576107916105c7565b5b61079e868287016106d3565b9150509250925092565b6000819050919050565b6107bb816107a8565b82525050565b60006020820190506107d660008301846107b2565b92915050565b6107e5816107a8565b81146107f057600080fd5b50565b600081359050610802816107dc565b92915050565b60006020828403121561081e5761081d6105c2565b5b600061082c848285016107f3565b91505092915050565b600060808201905061084a60008301876107b2565b818103602083015261085c818661055d565b90508181036040830152610870818561055d565b90508181036060830152610884818461055d565b905095945050505050565b7f4e487b7100000000000000000000000000000000000000000000000000000000600052602260045260246000fd5b600060028204905060018216806108d657607f821691505b602082108114156108ea576108e961088f565b5b50919050565b7f4e487b7100000000000000000000000000000000000000000000000000000000600052601160045260246000fd5b600061092a826107a8565b91507fffffffffffffffffffffffffffffffffffffffffffffffffffffffffffffffff82141561095d5761095c6108f0565b5b60018201905091905056fea26469706673582212202602dc51e745cc475ee4062699679b2c86f906c10be23151a3bd497c1b18a46164736f6c634300080b0033",
  "immutableReferences": {},
  "source": "// SPDX-License-Identifier: MIT\r\npragma solidity 0.8.11;\r\n\r\ncontract Darticle {\r\n    string public name = \"Darticle\";\r\n\r\n    uint256 public articleCount = 0;\r\n\r\n    mapping(uint256 => Article) public articles;\r\n\r\n    struct Article {\r\n        uint256 id;\r\n        string hash;\r\n        string title;\r\n        string description;\r\n    }\r\n\r\n    event ArticleCreated(\r\n        uint256 id,\r\n        string hash,\r\n        string title,\r\n        string description\r\n    );\r\n\r\n    function uploadArticle(\r\n        string memory _imgHash,\r\n        string memory _title,\r\n        string memory _description\r\n    ) public {\r\n        require(bytes(_imgHash).length > 0);\r\n\r\n        require(bytes(_title).length > 0);\r\n\r\n        require(bytes(_description).length > 0);\r\n\r\n        articleCount++;\r\n\r\n        articles[articleCount] = Article(\r\n            articleCount,\r\n            _imgHash,\r\n            _title,\r\n            _description\r\n        );\r\n\r\n        emit ArticleCreated(articleCount, _imgHash, _title, _description);\r\n    }\r\n}\r\n",
  "sourcePath": "E:\\Projects\\BlockChain-Projects\\darticle\\src\\contracts\\Darticle.sol",
  "compiler": {
    "name": "solc",
    "version": "0.8.11+commit.d7f03943.Emscripten.clang"
  },
  "schemaVersion": "3.4.4",
  "updatedAt": "2022-01-08T07:17:42.610Z",
  "networkType": "ethereum",
  "devdoc": {
    "kind": "dev",
    "methods": {},
    "version": 1
  },
  "userdoc": {
    "kind": "user",
    "methods": {},
    "version": 1
  }
}